{
  "contractName": "Will",
  "abi": [
    {
      "constant": true,
      "inputs": [],
      "name": "beneficiaryCount",
      "outputs": [
        {
          "name": "",
          "type": "uint256"
        }
      ],
      "payable": false,
      "stateMutability": "view",
      "type": "function"
    },
    {
      "constant": true,
      "inputs": [
        {
          "name": "",
          "type": "uint256"
        }
      ],
      "name": "beneficiaries",
      "outputs": [
        {
          "name": "id",
          "type": "uint256"
        },
        {
          "name": "name",
          "type": "string"
        },
        {
          "name": "relationship",
          "type": "string"
        },
        {
          "name": "walletAddress",
          "type": "address"
        }
      ],
      "payable": false,
      "stateMutability": "view",
      "type": "function"
    },
    {
      "inputs": [],
      "payable": false,
      "stateMutability": "nonpayable",
      "type": "constructor"
    },
    {
      "constant": false,
      "inputs": [
        {
          "name": "_name",
          "type": "string"
        },
        {
          "name": "_relationship",
          "type": "string"
        },
        {
          "name": "_walletAddress",
          "type": "address"
        }
      ],
      "name": "addBeneficiary",
      "outputs": [],
      "payable": false,
      "stateMutability": "nonpayable",
      "type": "function"
    }
  ],
  "bytecode": "0x6080604052600060025534801561001557600080fd5b50336000806101000a81548173ffffffffffffffffffffffffffffffffffffffff021916908373ffffffffffffffffffffffffffffffffffffffff160217905550610648806100656000396000f300608060405260043610610057576000357c0100000000000000000000000000000000000000000000000000000000900463ffffffff1680633030f4681461005c578063734b2a7c1461012b578063efeb5e5814610156575b600080fd5b34801561006857600080fd5b50610129600480360381019080803590602001908201803590602001908080601f0160208091040260200160405190810160405280939291908181526020018383808284378201915050505050509192919290803590602001908201803590602001908080601f0160208091040260200160405190810160405280939291908181526020018383808284378201915050505050509192919290803573ffffffffffffffffffffffffffffffffffffffff1690602001909291905050506102a2565b005b34801561013757600080fd5b506101406103f1565b6040518082815260200191505060405180910390f35b34801561016257600080fd5b50610181600480360381019080803590602001909291905050506103f7565b6040518085815260200180602001806020018473ffffffffffffffffffffffffffffffffffffffff1673ffffffffffffffffffffffffffffffffffffffff168152602001838103835286818151815260200191508051906020019080838360005b838110156101fd5780820151818401526020810190506101e2565b50505050905090810190601f16801561022a5780820380516001836020036101000a031916815260200191505b50838103825285818151815260200191508051906020019080838360005b83811015610263578082015181840152602081019050610248565b50505050905090810190601f1680156102905780820380516001836020036101000a031916815260200191505b50965050505050505060405180910390f35b6000809054906101000a900473ffffffffffffffffffffffffffffffffffffffff1673ffffffffffffffffffffffffffffffffffffffff163373ffffffffffffffffffffffffffffffffffffffff161415156102fd57600080fd5b60806040519081016040528060045481526020018481526020018381526020018273ffffffffffffffffffffffffffffffffffffffff16815250600360006004548152602001908152602001600020600082015181600001556020820151816001019080519060200190610372929190610577565b50604082015181600201908051906020019061038f929190610577565b5060608201518160030160006101000a81548173ffffffffffffffffffffffffffffffffffffffff021916908373ffffffffffffffffffffffffffffffffffffffff160217905550905050600460008154809291906001019190505550505050565b60045481565b6003602052806000526040600020600091509050806000015490806001018054600181600116156101000203166002900480601f0160208091040260200160405190810160405280929190818152602001828054600181600116156101000203166002900480156104a95780601f1061047e576101008083540402835291602001916104a9565b820191906000526020600020905b81548152906001019060200180831161048c57829003601f168201915b505050505090806002018054600181600116156101000203166002900480601f0160208091040260200160405190810160405280929190818152602001828054600181600116156101000203166002900480156105475780601f1061051c57610100808354040283529160200191610547565b820191906000526020600020905b81548152906001019060200180831161052a57829003601f168201915b5050505050908060030160009054906101000a900473ffffffffffffffffffffffffffffffffffffffff16905084565b828054600181600116156101000203166002900490600052602060002090601f016020900481019282601f106105b857805160ff19168380011785556105e6565b828001600101855582156105e6579182015b828111156105e55782518255916020019190600101906105ca565b5b5090506105f391906105f7565b5090565b61061991905b808211156106155760008160009055506001016105fd565b5090565b905600a165627a7a72305820a1a9af540e612060dd3bbfba1c246441d136bdeb2cd77cb74258bc2b297f4a330029",
  "source": "pragma solidity ^0.4.17;\n\ncontract Will {\n\n  address owner;\n  address lawyer;\n  \n  uint totalAmount = 0;\n\n  struct Beneficiary {\n    uint id;\n    string name;\n    string relationship;\n    address walletAddress;\n  }\n\n  mapping(uint => Beneficiary) public beneficiaries;\n  uint public beneficiaryCount;\n\n  constructor () public {\n    owner = msg.sender; \n  }\n\n  function addBeneficiary (string _name, string _relationship, address _walletAddress) public {\n    require(msg.sender == owner);\n    beneficiaries[beneficiaryCount] = Beneficiary(beneficiaryCount, _name, _relationship, _walletAddress);\n    beneficiaryCount++;\n  }\n}",
  "sourcePath": "/Users/MohamedIbrahim/Desktop/rubics/will/contracts/Will.sol",
  "compiler": {
    "name": "solc",
    "version": "0.4.24+commit.e67f0147.Emscripten.clang"
  },
  "schemaVersion": "2.0.0",
  "updatedAt": "2018-06-23T20:49:23.710Z"
}